:100000000C945A000C9477000C9477000C947700B1
:100010000C9477000C9447030C9477000C947700B1
:100020000C9477000C9477000C9477000C94770074
:100030000C9477000C9477000C9477000C94770064
:100040000C9471050C9477000C9477000C94770055
:100050000C9477000C9477000C9477000C94770044
:100060000C9477000C947700000024272A000025C8
:10007000282B000023262904040404040404040299
:100080000202020202030303030303010204081035
:100090002040800102040810200102040810200002
:1000A0000000070002010000030406000000000039
:1000B0000000000011241FBECFEFD4E0DEBFCDBF93
:1000C00012E0A0E0B1E0EEE2F1E102C005900D9295
:1000D000AA3AB107D9F713E0AAEAB2E001C01D922B
:1000E000AB38B107E1F70E946A050C9495080C94AF
:1000F00000008EBD0DB407FEFDCF0895982F2A98FD
:1001000084E78EBD0DB407FEFDCF1EBC0DB407FE07
:10011000FDCF9EBD0DB407FEFDCF2A9A2A9886E733
:100120008EBD0DB407FEFDCF7EBD0DB407FEFDCF25
:100130006EBD0DB407FEFDCF2A9A0895CF93DF93CD
:10014000A091A402B091A502C091AB02D091AC02E3
:1001500040E050E03AC08081882309F490E02F5FAE
:100160003F4F74962A303105B1F7992349F19A012E
:100170002A583C4FCA0109C0818180837496E217D6
:10018000F307D1F72F5F3F4FCB01BC016F5F7F4F6C
:100190006431710520F4FC01E255FD4FEDCFE1EC37
:1001A000F2E01082749683E0E938F807D1F7415005
:1001B000504021961597A233B10510F4A2E3B0E0A8
:1001C0004F5F5F4F4431510538F4FA01E255FD4F5E
:1001D00020E030E091E0BFCFB093A502A093A4024D
:1001E000D093AC02C093AB02DF91CF910895E1ECC4
:1001F000F2E08081882311F081E00895749683E015
:10020000E938F807B1F780E00895833091F1843040
:100210003CF48130C9F082300CF5882361F05EC077
:100220008530E1F185307CF1863009F442C08730B9
:1002300009F054C048C01EBC0DB407FEFDCF1EBC63
:100240000DB407FEFDCF089588ED8EBD0DB407FEF9
:10025000FDCF1EBC0DB407FEFDCF089586E08EBD18
:100260000DB407FEFDCF80EE8EBD0DB407FEFDCFB1
:1002700008951EBC0DB407FEFDCF8BEF8EBD0DB4EF
:1002800007FEFDCF08958EED8EBD0DB407FEFDCFA8
:1002900080EE8EBD0DB407FEFDCF089588ED8EBDB6
:1002A0000DB407FEFDCF8BE18EBD0DB407FEFDCF73
:1002B00008958EBD0DB407FEFDCF8BEF8EBD0DB43E
:1002C00007FEFDCF089589ED8EBD0DB407FEFDCF6D
:1002D00080EA8EBD0DB407FEFDCF08951EBC0DB49F
:1002E00007FEFDCF1EBC0DB407FEFDCF08950F9392
:1002F0001F930091760310917703A8E7B3E064E1C0
:1003000070E04C91400F11965C911197510F252F81
:10031000332727FD3095842F992787FD9095869F59
:10032000F001879FF00D969FF00D1124E20FF31F4F
:10033000E255FD4F8081882369F447FD0BC04A30A8
:100340004CF457FD07C0129683E0A038B807C9F6F1
:1003500080E001C081E01F910F9108951F931091DB
:1003600076037091770360918003A8E7B3E044E1DE
:1003700050E08C91810F11962C9111978A30B8F42E
:10038000270F27FD14C0243194F4332727FD30951F
:10039000992787FD9095849FF001859FF00D949F8C
:1003A000F00D1124E20FF31FE255FD4F608312960A
:1003B00083E0A038B807E9F61F910895809177038C
:1003C0008250809377030E947701882329F08091DF
:1003D00077038E5F80937703089580917603815031
:1003E000809376030E947701882329F08091760319
:1003F0008F5F809376030895809176038F5F80935B
:1004000076030E947701882329F08091760381503A
:100410008093760308950E94C40767E070E00E940D
:10042000EF07833099F184303CF48130C9F0823099
:1004300014F5882351F057C0853009F43DC085304C
:1004400084F1863009F04FC042C0A8E7B3E0E4EC85
:10045000F1E088E001900D928150E1F786E041C023
:10046000A8E7B3E0E4EEF1E088E001900D9281505E
:10047000E1F783E036C0A8E7B3E0E4E0F2E088E02B
:1004800001900D928150E1F787E02BC0A8E7B3E01F
:10049000E4E2F2E088E001900D928150E1F784E01F
:1004A00020C0A8E7B3E0E4E4F2E088E001900D9218
:1004B0008150E1F782E015C0A8E7B3E0E4E6F2E09E
:1004C00088E001900D928150E1F785E00AC0A8E72D
:1004D000B3E0E4E8F2E088E001900D928150E1F7AA
:1004E00081E08093800385E08093760383E18093AD
:1004F00077031092820381E08093810308958091B5
:100500008003843009F453C085304CF4823009F400
:1005100063C0833014F5813009F09CC087C08630F9
:1005200039F086300CF46DC0873009F093C02AC0D2
:1005300080918203E82FFF27E7FDF09563E0EE0F3F
:10054000FF1F6A95E1F7A8E7B3E0EC53FE4F88E0A0
:1005500001900D928150E1F7089580918203E82F78
:10056000FF27E7FDF09553E0EE0FFF1F5A95E1F7E7
:10057000A8E7B3E0EC51FE4F88E001900D92815066
:10058000E1F7089580918203E82FFF27E7FDF095BA
:1005900043E0EE0FFF1F4A95E1F7A8E7B3E0EC5FF9
:1005A000FD4F88E001900D928150E1F70895809110
:1005B0008203E82FFF27E7FDF09533E0EE0FFF1FE2
:1005C0003A95E1F7A8E7B3E0EC5DFD4F88E00190D4
:1005D0000D928150E1F7089580918203E82FFF2763
:1005E000E7FDF09523E0EE0FFF1F2A95E1F7A8E75E
:1005F000B3E0EC5BFD4F88E001900D928150E1F794
:10060000089580918203E82FFF27E7FDF09593E09E
:10061000EE0FFF1F9A95E1F7A8E7B3E0EC59FD4F05
:1006200088E001900D928150E1F708958091820356
:10063000E82FFF27E7FDF09583E0EE0FFF1F8A9577
:10064000E1F7A8E7B3E0EC57FD4F88E001900D9289
:100650008150E1F70895809182038F5F8093820338
:10066000843014F0109282030E947F020E9477016E
:10067000882361F08091820381508093820387FFF9
:1006800003C083E0809382030E947F0208951F923B
:100690000F920FB60F9211242F933F934F935F93B6
:1006A0006F937F938F939F93AF93BF93EF93FF933A
:1006B000109268000E94C40780E00E942707892BDF
:1006C00019F40E94ED0117C081E00E942707892BD1
:1006D00019F40E94DE010FC082E00E942707892BD7
:1006E00019F40E942B0307C083E00E942707892B7F
:1006F00011F40E94FC01FF91EF91BF91AF919F9186
:100700008F917F916F915F914F913F912F910F90BA
:100710000FBE0F901F901895CF93DF930E94960500
:100720002091830330918403409185035091860387
:10073000621B730B840B950B2091A4023091A502D0
:1007400040E050E0261737074807590708F067C010
:10075000809177038150809377030E9477018823EB
:1007600009F453C0409177034F5F40937703A09102
:10077000760350918003C8E7D3E064E170E088819C
:100780008A0F29818A30B8F4240F27FD14C0243140
:1007900094F4332727FD3095992787FD9095869F00
:1007A000F001879FF00D969FF00D1124E20FF31FCB
:1007B000E255FD4F5083229683E0C038D807F9F602
:1007C0000E949E001982E1ECF2E08081882331F4DE
:1007D000749683E0E938F807C1F717C08EEA92E013
:1007E00061E070E048EC50E00E94D4074091AB0219
:1007F0005091AC028EEA92E062E070E00E94D40771
:1008000081E0809380038093AA020E949605609302
:100810008303709384038093850390938603DF9111
:10082000CF9108956F927F928F929F92AF92BF92D5
:10083000CF92DF92EF92FF920F931F93CF93DF93AC
:1008400080918103882311F40E940B020E948C0383
:10085000EE24FF24F9E37F2EE7EE6E2E74E1872E5F
:10086000912CADC08DE3E816F10408F09BC0C937A8
:10087000D10508F097C0C114D10439F0CE0166E06B
:1008800070E00E94DB07892B49F47EBC0DB407FEA3
:10089000FDCF6EBC0DB407FEFDCF87C0CE0166E074
:1008A00070E00E94DB0780917603482F552747FDB3
:1008B0005095C801841B950B04970CF069C0A62FB6
:1008C000BB27A7FDB09580917703282F332727FDFD
:1008D0003095CD01821B930B04970CF059C0809189
:1008E0007803992787FD9095840F951F80179107AE
:1008F00051F480917903992787FD9095820F931F7A
:100900008A179B07E1F180917A03992787FD9095DB
:10091000840F951F8017910751F480917B039927CD
:1009200087FD9095820F931F8A179B0741F1809155
:100930007C03992787FD9095840F951F8017910759
:1009400051F480917D03992787FD9095820F931F25
:100950008A179B07A1F080917E03992787FD9095C8
:10096000840F951F8017910769F480917F03992761
:1009700087FD9095820F931F8A179B0719F480912A
:10098000800311C0AA0DBB1DA255BD4F8C910BC099
:10099000E62FFF27E7FDF095EA0DFB1DE255FD4F21
:1009A000808101C080E00E940501219709F05ACFA3
:1009B0000894E11CF11C80E6E816F104C9F0C701B7
:1009C00066E070E00E94DB076C01C70166E070E042
:1009D0000E94DB07062F112707FD1095C0E8D0E025
:1009E000089D5001099DB00C189DB00C11243ACF00
:1009F0008091AA028111FFCF84E0809368008FE08C
:100A000080936D00DF91CF911F910F91FF90EF9038
:100A1000DF90CF90BF90AF909F908F907F906F901E
:100A20000895CF93DF938CE284B980E58CBD81E09B
:100A30008DBD1AB88FE08BB985E00E944E060E94EA
:100A4000C9070E9496056093830370938403809383
:100A5000850390938603C0E0D1E0888199816A8103
:100A60007B812FEF8F3F920749F48FEF6F3F78071D
:100A700049F080E090E00E94AE0502C00E947E0036
:100A80002496EBCF88ECEEEAF2E0DF011D928A9526
:100A9000E9F7109278031092790310927A0310927A
:100AA0007B032A9884E78EBD0DB407FEFDCF1EBCE4
:100AB0000DB407FEFDCF82E28EBD0DB407FEFDCF63
:100AC0002A9A2A9886E78EBD0DB407FEFDCFDF91E6
:100AD000CF9108950E9404060E9411050E941204FD
:100AE000FDCF1F920F920FB60F9211248F939F93F9
:100AF000AF93BF938091870390918803A09189035E
:100B0000B0918A030196A11DB11D80938703909334
:100B10008803A0938903B0938A03BF91AF919F91FB
:100B20008F910F900FBE0F901F90189560918703C3
:100B3000709188038091890390918A0327E0660F62
:100B4000771F881F991F2A95D1F72DE730E040E0E5
:100B500050E00E940208CA01B9010895AF92BF9205
:100B6000CF92DF92EF92FF920F931F935B016C0184
:100B700060918703709188038091890390918A0323
:100B800047E0660F771F881F991F4A95D1F72DE719
:100B900030E040E050E00E94020879018A01609153
:100BA0008703709188038091890390918A0337E0CD
:100BB000660F771F881F991F3A95D1F72DE730E010
:100BC00040E050E00E9402082E193F09400B510BF3
:100BD0002A153B054C055D0510F31F910F91FF9001
:100BE000EF90DF90CF90BF90AF900895019759F0AC
:100BF000FC01EE0FFF1FEE0FFF1F32978FB7F89427
:100C00003197F1F78FBF089578941092870310926F
:100C100088031092890310928A0384B5826084BD90
:100C200084B5816084BD85B5826085BD85B58160F0
:100C300085BDEEE6F0E0808181608083E1E8F0E050
:100C4000808182608083808181608083E0E8F0E041
:100C5000808181608083E1EBF0E08081846080832B
:100C6000E0EBF0E0808181608083ECE7F0E0808160
:100C70008F778083808180648083EAE7F0E08081E1
:100C800084608083808182608083808181608083B2
:100C90008081806880831092C100089590917C00CB
:100CA0008F70907F892B80937C0080917A00806484
:100CB00080937A0080917A0086FDFCCF20917800A5
:100CC00040917900942F80E030E0282B392BC90126
:100CD00008951F93CF93DF93182FEB0161E00E94DB
:100CE000BE06E12FF0E0E156FF4F8491833051F4CE
:100CF00080918000806880938000D0938900C093A9
:100D0000880038C0843051F48091800080628093E4
:100D10008000D0938B00C0938A002CC0813029F4CE
:100D200084B5806884BDC7BD25C0823029F484B5F0
:100D3000806284BDC8BD1EC0863041F48091B00081
:100D400080688093B000C093B30014C0873041F432
:100D50008091B00080628093B000C093B4000AC05C
:100D6000C038D1051CF4812F60E002C0812F61E002
:100D70000E94DC06DF91CF911F910895282F30E06B
:100D8000C90185579F4FFC01949129583F4FF901A4
:100D90008491882381F0E82FF0E0E859FF4FE49137
:100DA000F0E0662329F4808190958923808308955B
:100DB0008081892B80830895482F50E0CA01815695
:100DC0009F4FFC012491CA0185579F4FFC019491CC
:100DD00049585F4FFA0134913323C1F1222331F195
:100DE000233021F4809180008F7705C0243031F4C6
:100DF000809180008F7D8093800018C0213019F48D
:100E000084B58F7704C0223021F484B58F7D84BDF2
:100E10000DC0263021F48091B0008F7705C02730B7
:100E200029F48091B0008F7D8093B000E32FF0E033
:100E3000E359FF4FE491F0E0662329F48081909517
:100E40008923808308958081892B80830895482F8A
:100E500050E0CA0181569F4FFC012491CA01855779
:100E60009F4FFC01949149585F4FFA01349133230D
:100E700019F420E030E035C0222331F1233021F491
:100E8000809180008F7705C0243031F480918000FC
:100E90008F7D8093800018C0213019F484B58F773E
:100EA00004C0223021F484B58F7D84BD0DC026306E
:100EB00021F48091B0008F7705C0273029F480910C
:100EC000B0008F7D8093B000E32FF0E0EE58FF4F2D
:100ED000E491F0E0808120E030E0892311F021E00E
:100EE00030E0C9010895A0E0B0E0E9E7F7E00C9434
:100EF0006608EC01A880B980CA80DB80A114B10427
:100F0000C104D10441F484E2A82E89EDB82E8BE50A
:100F1000C82E87E0D82EC601B5012DE133EF41E0A0
:100F200050E00E94430827EA31E440E050E00E948C
:100F300024087B018C01C601B5012DE133EF41E0AE
:100F400050E00E944308CA01B9012CEE34EF4FEF84
:100F50005FEF0E9424086E0D7F1D801F911F97FF79
:100F600004C06150704080409048688379838A83D0
:100F70009B839B013F77C901CDB7DEB7EAE00C94B4
:100F800082080E947307089586EA92E00E94730720
:100F90000895A0E0B0E08093A6029093A702A093EA
:100FA000A802B093A9020895DC0101C06D934150DD
:100FB0005040E0F70895AA1BBB1B51E107C0AA1FD0
:100FC000BB1FA617B70710F0A61BB70B881F991FEA
:100FD0005A95A9F780959095BC01CD01089597FB8E
:100FE000092E07260AD077FD04D0E5DF06D00020C1
:100FF0001AF4709561957F4F0895F6F79095819555
:101000009F4F0895A1E21A2EAA1BBB1BFD010DC024
:10101000AA1FBB1FEE1FFF1FA217B307E407F507A8
:1010200020F0A21BB30BE40BF50B661F771F881F84
:10103000991F1A9469F760957095809590959B011A
:10104000AC01BD01CF010895629FD001739FF001F3
:10105000829FE00DF11D649FE00DF11D929FF00D48
:10106000839FF00D749FF00D659FF00D9927729F7F
:10107000B00DE11DF91F639FB00DE11DF91FBD010A
:10108000CF011124089597FB092E05260ED057FD98
:1010900004D0B8DF0AD0001C38F450954095309544
:1010A00021953F4F4F4F5F4F0895F6F790958095EC
:1010B000709561957F4F8F4F9F4F08952F923F926C
:1010C0004F925F926F927F928F929F92AF92BF9258
:1010D000CF92DF92EF92FF920F931F93CF93DF9304
:1010E000CDB7DEB7CA1BDB0B0FB6F894DEBF0FBE61
:1010F000CDBF09942A88398848885F846E847D84AE
:101100008C849B84AA84B984C884DF80EE80FD80AF
:101110000C811B81AA81B981CE0FD11D0FB6F89425
:0E112000DEBF0FBECDBFED010895F894FFCFE6
:10112E0000000100FFFF1400080003030200000589
:10113E0001000B010B0001403000000031000000E7
:10114E0032000000330001043400070735000707A2
:10115E003600070737000401380004003900040088
:10116E00410080024200008343009F9F1100010056
:10117E001200080013000E10100044001200180098
:10118E0040000000410000004200005FFFFF280009
:10119E0013000C30FFFF3C0010004043FFFF6400C3
:1011AE0021000400440004834500007F070005026F
:1011BE00FFFF280007002702FFFF01000300301089
:1011CE000D00363307003712FFFF0A004400007F80
:1011DE004500005F230000002400000021000000F5
:1011EE00FFFFFFFF000101010201030101000101E8
:1011FE0001020103000101010201030101000101CD
:10120E0001020103000000010101020101000200C0
:10121E0001010102000101010201020201000101AE
:10122E0001020002000101010200020101000101A0
:10123E000102020200010101020100020000010090
:10124E000101010200000001010001010000000186
:10125E000100010100000001010001010000000178
:10126E000100010100010100020001010100010164
:10127E000201020200010100020001010100010150
:10128E000201020200000001000201010000010043
:10129E00020001010200020102020101000201022C
:1012AE00020201010000010001010201020002011F
:1012BE000101010200000100010102010200020110
:0A12CE00010101022C0101000000E3
:00000001FF
